:0400000092EF04F087
:1008000000616C636F686F6C206465746563746508
:0F0810006400204452495645205341464500009C
:10082000000E026EEEEC04F083A602D0010E026E02
:1008300083B602D0000E026E0204D8A418D0839AA8
:10084000828E0AD00FC0F6FF10C0F7FF0800F550E7
:100850001EEC05F00F4A102A0FC0F6FF10C0F7FF7C
:100860000800F5500009D8A4EDD7ADEC04F0025013
:10087000D8A412008398829EC00E25EC05F00AD001
:1008800011C0F6FF12C0F7FF0800F5501EEC05F08E
:10089000114A122A11C0F6FF12C0F7FF0800F550E6
:1008A0000009D8A4EDD7ADEC04F012008C8E000E38
:1008B0000C6E000E0B6E0C5016E1050E0B5CD8B0E2
:1008C00012D0000E0E6E000E0D6E0E5007E1640E7B
:1008D0000D5CD8B003D00D4A0E2AF7D70B4A0C2A6C
:1008E0000C5001E1EAD78C9E12002CEC05F0000EB2
:1008F000FEEC04F001C009F002C00AF009C007F0E4
:100900000AC008F0C8EC04F007C013F008C014F0E7
:10091000A90E135C060E1458D8B002D082821200C1
:10092000829212000E6A0D6A0C6A0B6A640EF66EF1
:100930000A0EF76E000EF86E00EE0FF010EE04F0E7
:100940000900F5CFEEFFE550E150FAE1000EF86E38
:10095000080EF76E000117EF05F0000E0C6E000E8A
:100960000B6E0C5014E1640E0B5CD8B01200000E3C
:100970000E6E000E0D6EF40E0D5C010E0E58D8B00A
:1009800003D00D4A0E2AF7D70B4A0C2AEAD71200D9
:1009900007C001F008C002F0000E046E050E036EE1
:1009A000DBEC04F001C007F002C008F007C007F05C
:1009B00008C008F0120001500302F3CF05F0F4CF95
:1009C00006F001500402F350062602500302F350D1
:1009D000062605C001F006C002F01200380E25EC14
:1009E00005F0060E25EC05F00C0E25EC05F0010EC9
:1009F00025EC05F0800E25EC05F01200036E034493
:100A0000E846FC0B0109C26EC282C2B2FED7C3CF58
:100A100001F0C4CF02F01200000E936E9280959EFA
:100A2000959C959A9598949E9492958612000CECBC
:100A300005F075EC04F010EC04F0FBD7016E8C8C23
:100A400001C08AFF56EC04F01200016E8C9C01C0BC
:100A50008AFF56EC04F0120092800E0EC16EAE0EAC
:080A6000C06E1200010812082B
:020000040020DA
:08000000FFFFFFFFFFFFFFFF00
:020000040030CA
:0E000000000C1F1FFF8385FF0FC00FE00F4095
:00000001FF
